:400000000040002011000000151300001513000080B500AF01F0ACF980B500AF254B12221A60302002F05EF9234B244A1A60244B234A126802210A431A60224B224A1A6001
:40004000224B224A126808218A431A60FA23DB00181C02F093F91E4B181C02F0B3FA1D4B9C2292021A601C4B1C4A1A601C4BBC2292011A60184B1B4A1A601B4BC822520125
:400080001A60154B194A1A60194B822212061A60184B8022D2021A60174B42221A60174B41221A60164B40221A60164B00221A60BD4680BD3000104004010B40060000804D
:4000C00078002E407C002E406A2D00006CF02E40DC050000080301400000014042FF00800403014041FF00800003014040FF008008010B4000010B402C010140180101402D
:40010000040101400C020B4080B582B000AF72B64E4B00221A604E4B01221A70FB1D00221A7023E0FB1D1A78131C5B009B185B00484A9B183B603B681A78597809020A4320
:40014000997809040A43DB781B061343191C3B681A795B791B0213439BB2081C191C01F08BF9FB1D1A78FB1D01321A70FB1D1B78012BD7D9384A394B101C191C01F08CF99A
:40018000374BEE2212061A60364B992212041A60354B992212041A60344B992212041A60334B992212041A60324B992212041A60314B02221A60314B02221A60304A304B00
:4001C0001B78DBB202210B43DBB213702D4A2D4B1B78DBB23C218B43DBB214210B43DBB21370274A264B1B78DBB216210B43DBB21370254B01221A60244B254A1A60254B98
:4002000020221A60244BC42292021A60234B20221A60234BC0221A60224BB022D2031A60214B802212021A60204BC1221A60204BD82212041A601F4B01221A60FFF7ECFEDD
:4002400001F06AF9BD4602B080BDC0466CF02E401C700F407C78010088780100A8780100000002400001024000500F4010500F4020500F4030500F402000104000800F40D6
:4002800000700F4001700F4000000440080004400100D80000010440080104401801044000020440080204400C02044000030440080304401803044010B5064C2378002BAF
:4002C00007D1054B002B02D0044800E000BF0123237010BD2006002000000000F477010008B5084B002B03D00748084900E000BF07480368002B00D108BD064B002BFBD0A9
:400300009847F9E700000000F477010024060020C80000200000000080B500AF01F044F9034B01221A70034B01221A70BD4680BD400600204106002080B582B000AFFB1D1D
:40034000054A12781A70044B00221A70FB1D1B78181CBD4602B080BD4106002080B500AF164B0020191C00F0F1F902F04FFA012000F008FA02F054F902F0A2FA012002F045
:4003800055FA8023DB05181C02F016FA02F0C6F902F06CFA012000F005FA0020702100F0D5F9002001F0EAFF012000F0EBF902F037F9012000F0F6F9BD4680BDFF3F00001E
:4003C00080B500AF032002F039F802F011F80C4B181C01F001F9FFF7C1FF0A4B181C01F009FB094B80220921995201F04DF901F095FA064B181C01F077FEBD4680BDC0463B
:40040000D50600005D110000400200201903000080B500AF024B1B68181CBD4680BDC0463C06002080B582B000AF7860024B7A681A60BD4602B080BD3C06002090B583B002
:4004400000AFFC1D09F0A8F9031C2370144B1B78032B22D1FB1D1B78012B07D0FB1D1B78042B03D0FB1D1B78052B03D10D4B01221A7012E00B4B1B78002B0BD00A4B1B688D
:400480005A1C094B1A60084B1B68002B02D1002000F00AF9034B00221A70BD4603B090BD4E240020480A00203C06002090B58DB000AF534BFB610023FB620023BB610023A1
:4004C000FB6293E04F4AFB6AD3181B78472B00D089E0FB6A01334B4AD35C472B00D082E0FB6A0233474AD35C412B00D07BE0FB6A0333444AD35C2C2B00D074E0FA6A414B50
:40050000D318414A101C191CC82204F05EF93D4A80239B00101C00211A1C04F05FF93B4B00221A803A4B7B61374A7B69101C191C05F032F8031CBB6200237B6200233B6297
:400540001EE07B6A01337B62314B0020191C05F023F8031CBB627B6A022B02D07B6A042B0ED1BB6A181C04F0EFF8031C0C1C391C3A6AD2008A18136054603B6A01333B620E
:40058000BB6A002BDDD13B1C5C681B68181C211C0022204B03F04AF8031E2DD13B1CDC689B68181C211C00221B4B03F03FF8031E22D11A4B181C0021102204F00FF9174A2F
:4005C0003B1C111C1A1C1023081C111C1A1C04F0FCF80D4A80239B00101C00211A1C04F0FDF8C04608E0FB6A0133FB62FA6AFE235B009A4200DC65E7BD460DB090BDC046C3
:4006000000780100440600204808002044080020047801000070A7400088C3403819002080B582B000AF00237B6000233B6062B6FFF7C6FE02F030FC02F092FB0E4B181C5D
:4006400004F050F90D4B1A8880235B009A4201D9FFF72CFF07F064FCFFF7F0FE084B1B78002B08D0074B1B78032B04D1044B00221A7001F099FAE5E708780100440800202A
:40068000400600204E24002080B582B000AF021CFB1D1A70034BFA1D12781A70BD4602B080BDC0464C0A002080B582B000AF7860024B7A681A60BD4602B080BD500A002082
:4006C00080B500AF024B1B68181CBD4680BDC046500A002080B582B000AF02F079FA021C0423134019D0164B1B78002B12D0154B1B6814337B60134B1B687A689A4206D2D9
:40070000104B00221A600020FFF78CFE02E00D4B7A681A60042002F069FA02F059FA021C8023DB00134007D08023DB00181C02F05DFA054B01221A70BD4602B080BDC04618
:400740004C0A0020500A00204D0A002080B582B000AF7860396002F0B3F87B68181C012102F0ECF87B68181C012102F025F97A683B68101C191C02F0B9F902F077F8BD46A8
:4007800002B080BD80B582B000AF786002F098F87B68181C02F046F902F068F8BD4602B080BDC04680B582B000AF786002F088F87B68181C02F066F902F058F8BD4602B089
:4007C00080BDC04690B587B000AF041C081C3A60191CBB1D221C1A807B1D021C1A703B1D0A1C1A700823FB18BA1D12881A817B1D1B789AB20823FB189A800823FB183A6887
:400800001A601723FC180823F918084A3B1D1B78081C002112F0FAFB031C23701723FB181B78181CBD4607B090BDC0465424002098B500AF1F4B204A13CA13C3116819605B
:400840009188998092799A711B4B182013211A1C0023FFF7B7FF194B09221A70174B1B7899B2174B80229952164B1B2001211A1C0023FFF7A7FF144B01221A70124B2120B4
:4008800001211A1C0023FFF79DFF104BFA2292001A800E4B242002211A1C0023FFF792FF0B4B122010211A1C0023FFF78BFFBD4698BDC046D400002018780100E70000206C
:4008C00040020020F2000020E8000020F00000202C78010080B584B000AF021CBB1D1A807B1D0A1C1A700C23FB18BA1D12881A800C23FB187A1D1278DA700C23FB18122267
:400900009A700B4B0C22B9181A785B781B021A4300231204120C1B0C1B041343181C11F043FD044B01221A70BD4604B080BDC04654240020540A002080B584B000AF021CCF
:40094000FB1D1A700C23FB1800225A70FB1D1B78032B04D10C23FB1808221A7019E0FB1D1B78022B04D10C23FB1807221A7010E0FB1D1B78012B04D10C23FB1803221A70DB
:4009800007E0FB1D1B78002B03D10C23FB1801221A700C23FB18181C08F02DFFBD4604B080BDC04690B595B000AF3C1C20606160A260E3604623FB1801221A704E23FB185F
:4009C00000221A80B64B00221A702823FB180F221A812823FB184722BA181A602823FB1801229A802823FA18AE4B101C191C002212F0D6FA2823FB181B681B78002B00D09C
:400A000066E13B1C9B89182B4BD13B1C1B89132B3CD83B1C5B681B78032B37D81423FB18181C0021132203F0D9FE3B1C5A683B1C1B891C1C1423FB18181C111C221C03F098
:400A4000C4FE3B1C1B89DAB23B1C5B681820111C1A1C4023FFF7B6FE031E16D13B1C1B89DAB2914B1A70904B1B7899B28F4B802299528F4B1422BA1813CA13C311681960CF
:400A80009188998092799A710AE009E03B1C1B89132B00D82CE118200D21FFF71BFF27E126E13B1C9B89122B20D13B1C1B89102B17D13B1C1B89DAB23B1C5B681220111CB1
:400AC0001A1C4023FFF77EFE4623FB1801221A704623FB180F2001211A1C0023FFF772FE06E112200D21FFF7F5FE01E13B1C9B891E2B28D13B1C1B89042B1FD13B1C1B8952
:400B0000DAB23B1C5B681E20111C1A1C4023FFF759FE3B1C1B89042B0BD13B1C5B68654A111C1A1C0423081C111C1A1C03F04DFEDEE01E200D21FFF7CDFED9E01E200D2190
:400B4000FFF7C8FED4E03B1C9B89212B1FD13B1C5B681B78032B15D83B1C1B89DAB23B1C5B682120111C1A1C4023FFF72BFE3B1C5B681A78504B1A704F4B1B78181CFFF797
:400B8000DBFEB5E021200321FFF7A4FEB0E03B1C9B89242B00D076E03B1C5B684E22BC18181C01F041F8031C23804E23FB181B88002B0ED1414B01221A703B1C1B89DAB2DB
:400BC0003B1C5B682420111C1A1C4023FFF7FAFD8EE04E23FB181B88181C03F05BFD031C0C1C181C211C0022354B02F03DFD031E36D04E23FB181B88181C03F04BFD031C6E
:400C00000C1C181C211C00222E4B02F019FD031E26D03B1C1B89DAB23B1C5B682420111C1A1C4023FFF7CEFD4E23FB181B88181C03F030FD031C0C1C181C211C0022224B33
:400C400002F03AFD031C0C1C181C211C02F016FD031C9AB21D4B1A80184B02221A7047E01223FB1864221A801223FB18242002211A1C4023FFF7A6FD144BA0221A800F4B8B
:400C800002221A7034E03B1C9B89272B30D13B1C5B681B78002B2BD0FFF7CAFD28E0C046540A002054240020E700002040020020D4000020EC000020E8000020CF00002090
:400CC000000059400000C4400000E43FF00000202823FB181B681B78012B09D13B1C9B89122B05D13B1C9B89181C0821FFF7F2FD3B1C9B89152B4FD13B1C1B89102B45D138
:400D00002823FB181B681B78012B3ED12823FB1812221A812823FB183422BA181A602823FB1810229A802823FA18274B101C191C002212F035F92823FB181A683B1C5B68B1
:400D4000101C191C102203F031FD031CBB64BB6C002B13D14623FB1800221A704623FB180F2001211A1C0023FFF72CFD174B122010211A1C0023FFF725FD06E03B1C9B8947
:400D8000181C0821FFF7A6FD06E005E03B1C9B89181C0D21FFF79EFD0D4B1B7801225340DBB2002B0DD0084B1A785B781B021A4300231204120C1B0C1B041343181C11F074
:400DC00059FBBD4615B090BD542400202C780100540A0020B0B588B002AF00237B6100233B61C14B5B6803221A71C04B1B78012B04D0BE4B1B78022B00D0E5E0002001F037
:400E0000F3F9012001F0CAF9012001F013FAB84B1B78002B03D0B44B0A221A8202E0B24B00221A82B14B1B78012B69D1B14B1722DA71B04B0022DA72AF4B1B781A1CAF4B3F
:400E40009A5CAC4B1A73AE4B1B78191CAC4B5B781D1CAB4B9B781C1CA94BDB781A1CA94B0092181C2A1C231C03F0C0FCA44B1A78A04B5A73A24B5A789E4B9A73A04B9A789D
:400E80009C4BDA739E4BDA789A4B1A749C4B1A79984B5A749A4B5A79964B9A74984B9A79944BDA74964BDA79924B1A75944B1A7A904B5A75924B5A7A8E4B9A75904B9A7A16
:400EC0008C4BDA758E4BDA7A8A4B1A768C4B1A7B884B5A768A4B5A7B864B9A76884B9A7B844BDA76864BDA7B824B1A77814B00225A77804B00229A777E4B1F22DA7762E0BB
:400F00007A4B1B78022B5ED17F4B1B780533DAB2784BDA71774B1022DA72774B1B781A1C764B9A5C734B1A73784B1A78714B5A73764B5A786F4B9A73744B9A786D4BDA73F3
:400F4000724BDA786B4B1A74704B1A79694B5A746E4B5A79674B9A746C4B9A79654BDA746A4BDA79634B1A75684B1A7A614B5A75664B5A7A5F4B9A75644B9A7A5D4BDA753B
:400F8000624BDA7A5B4B1A76604B1A7B594B5A765E4B5A7B574B9A765C4B9A7B554BDA765A4BDA7B534B1A77584B1A7C514B5A77564B5A7C4F4B9A774E4BDB790833DAB2C5
:400FC0004C4BDA7780E07FE0484B1B78032B00D07AE0012001F008F9012001F0DFF8002001F028F9404B01221A82414B1B78002B6AD0404B1122DA713E4B16221A723D4BF2
:40100000AA225A723B4BFE229A723A4B2022DA72384B00221A730E23FC1800F04BF9031C23800E23FB181B881B0A9BB2DAB2314B5A730E23FB181B88DAB22E4B9A730C2390
:40104000FC1800F041F9031C23800C23FB181B881B0A9BB2DAB2274BDA730C23FB181B88DAB2244B1A74FFF7D3F9031CBB60BB681B0EDAB21F4B5A74BB681B0CDAB21D4B16
:401080009A74BB681B0ADAB21A4BDA74BB68DAB2184B1A75FFF714FB031C7B607B681B0EDAB2144B5A757B681B0CDAB2114B9A757B681B0ADAB20F4BDA757B68DAB20D4B30
:4010C0001A760C4B1922DA77074B5B68104A12881A80054B5B680E4A12885A80024B054A9A60BD4606B0B0BD68010020D0000020CE00002028010020E8000020EC0000207B
:40110000381900203C780100E7000020D4000020F000002080B500AF012001F065F8002001F03CF8012001F085F80A4B5B68A0221A80084B5B68A0225A80064B5B680022FB
:401140001A71044B1E221A82024B034A9A60BD4680BDC04668010020F400002090B585B000AF786039607B68262B2CD002D8012B07D091E0282B00D179E04C2B00D183E002
:401180008AE0474B0020191CFFF7E0FA0120FFF7F9FA0120FFF778FA424B1A78424B1A70FFF718FE0E23FC18022000F091FC031C23800E23FB181B88002B03D0002001F09D
:4011C000F7F969E068E0394B1B78032B46D0FFF7B3F8031E14D00C2011F07EFEFFF79AFF0E23FC18022000F073FC031C23800E23FB181B88002B39D0002001F0D9F935E09A
:40120000294B1B78012B03D0274B1B78022B03D1254B03221A7007E0234B1B78032B03D1204B1A78204B1A70FFF7D4FD1E4B1B781A1C1F4B181C111C03F0D8FA0E23FC18D9
:40124000022000F045FC031C23800E23FB181B88002B0BD0002001F0ABF91DE0FFF7D8F8031C0133181CFFF7DDF815E014E00C2011F068FE0B4B1A780B4B1A70FFF7AAFDC1
:40128000022000F025FC07E03B68186859689A68DB68FFF787FBC046BD4605B090BDC046FFFF0000CF000020D00000204E2400206878010080B500AF024B1B88181CBD4607
:4012C00080BDC046560A002080B500AF024B1B88181CBD4680BDC046580A002080B586B000AFF860B9607A6000237B6109E0BB685A1CBA601B78181C01F04EFD7B69013340
:401300007B617A697B689A42F1DB7B68181CBD4606B080BD80B500AFFEE7C04680B584B000AF7860104B1A687B68D3181A1C0F4BD21A8023DB009A4209DC0B4B1B68FB60FD
:40134000094B1A687B68D218074B1A6007E003F001FA031C0C221A6001235B42FB60FB68181CBD4604B080BD140100206824002080B586B000AF224B7B61224B3B61204B03
:401380007B6135E03B691B68FB603B695B68BB603B699B683B6000237B600CE0FB681A68BB681A60BB680433BB60FB680433FB607B6804337B607A683B689A42EED13B6967
:4013C000DB683B6000237B6008E0BB6800221A60BB680433BB607B6804337B607A683B689A42F2D13B6910333B617B69013B7B617B69002BC6D103F0B3F9FFF711F9FEE733
:4014000001000000E484010080B582B000AF154B144A126801218A431A6000237B600FE07B68032B04D8104B7A689200D35800E00E4B0F4A796889008B507B6801337B60EE
:401440007B682F2BECD9FEF75FFE0A4B00221A60044B044A126801210A431A60BD4602B080BDC04600001040000000001513000000000020C000002080B582B000AF7860C9
:4014800039607A683B68101C00211A1C03F0A6F9BD4602B080BDC04680B586B000AF7860396000233B6100237B612FE07B699B007A68D3181B68BB600F23FB18BA681A70CE
:4014C000BB68FF229343BB6018E03B695B003A68D3181B781A1CBB68D318191C3B695B003A68D3185B780B703B6901333B610F23FB181A780F23FB18013A1A700F23FB18B3
:401500001B78002BE1D17B6901337B617B69072BCCD9BD4606B080BD80B500AF0B4B03221A600B4B03221A600A4B802212051A60094B0A4A1A600A4B084A1A60094B002287
:401540001A60012000F010F8BD4680BD300030403000314000003A4000033A400100030040033A40000E3F4080B584B000AF021CFB1D1A700B4B1B68FB60FB1D1B78002B30
:4015800005D0FB68802212061343FB6003E0FB685B005B08FB60034BFA681A60BD4604B080BDC04680033A4080B582B000AF094B1B68DAB2FB1D7F218A431A70054BFA1D19
:4015C00012781A60FB1D1B78DB09DBB2181CBD4602B080BD1002044080B582B000AF786000F048F87B68181C00F008F8022000F011F800F035F8BD4602B080BD80B582B099
:4016000000AF7860024B7A681A66BD4602B080BD0000002090B585B000AF021CFB1D1A700623FB600B23FC1800F033FE031C23700A4B0A4A1268C0218A43111CFA1D107843
:40164000FA689040021C0A431A600B23FB181B78181C00F022FEBD4605B090BD08E400E080B500AF024B802252001A60BD4680BD00E100E080B500AF024B802252001A602B
:40168000BD4680BD80E100E080B500AF064B1B78002B04D100F00AF8034B01221A7000F011F9BD4680BDC0465A0A002080B584B000AF0F20032100F013FF664B0F20191CAE
:4016C00000F0E8FE644B03221A60644B1B68002B01DA634900E06349634B634A12680A431A60624B624A1A60624B634A1A60634B00221A60624B634A1A60634B614A1A6022
:40170000624B624A1268802149020A431A60604B5F4A1268802149020A431A605D4B00221A605D4B00221A605C4B01221A605C4B1B687B607B685B4A13407B607B68802296
:40174000920513437B607B68012293437B60544B7A681A600023FB6075E0534BFA689200D258DC239B0113407B60504AFB68D3181B781A1C7B6813437B60FB689B004C4A3E
:40178000944663447A681A60474BFA689200D3580122134009D03F4B3E4A1268F96801208840011C89B20A431A603F4BFA689200D3580222134009D0374B374A1268F96880
:4017C00001208840011C89B20A431A60364BFA689200D25880239B00134003D080235B00BB6002E080235B01BB602F4BFA689200D25880235B00134005D12E4BFA685200DD
:401800000021D15209E0BB68002B00DA01335B1099B2284BFA685200D152BB68264A53438022D20094466344002B02DA234A94466344DB129BB219B2214BFA689200D15086
:40184000FB680133FB60FB68012B86D9BD4604B080BDC046A119000020003A4080033A40C0201013C020001300003A4004003A40C4000A8018003A400000FF071C003A40D3
:4018800010003A400200020014003A4000033A4040033A4028023A4038023A4018023A4030003A40FFFFFFDF407A0100487A010080003A405019002010270000FF07000022
:4018C0004819002080B500AF0A4B1B68002B0EDBC046094B1B68002BFBDB064B054A1268802109060A431A600A2000F06BFEBD4680BDC04600003A4008023A4080B500AF7D
:40190000034B034A1268520052081A60BD4680BD00003A4080B500AFBD4680BD80B500AF1A4B1A4A1268802109060A431A60184B1B68002B24DA174B1A6880235B021340AA
:4019400003D0154B03221A7002E0134B01221A70FFF7E0FFFFF7D2FF0D4B1A6880235B03134010D00A4B0A4A12680C490A401A60094B1B7804221343DAB2074B1A7002E005
:40198000054B00221A70BD4680BDC04630003A4000003A4004003A405C0A0020FFFFEFFF80B582B000AF044B1B687B60024B7A681A60BD4602B080BD10023A4080B500AF03
:4019C000064B00221A70064B00221A70054B00221A7000F009F8BD4680BDC04657240020502400205624002080B500AF00F078FBBD4680BDF0B58FB004AF78602623FB189F
:401A000000221A800C23FA18284B111C1A1C1823081C111C1A1C02F0D8FE254B1B78002B04D1FFF7CBFF224B01221A707B68002B30D02623FB181B88002B2FD11D4B7A68EA
:401A40001A602623FC181C491C4A1D4E0C23FD18062300931B4B01936E23FF330293081C111C321C2B1C06F071FA031C23802623FB181B88002B11D1134B01221A7026239E
:401A8000FC18124B181C28211A2211F00DFA031C238003E02623FB1801221A802623FB181B88181CBD460BB0F0BDC046F07B0100600A002058190020251E0000601900202F
:401AC000EC0A0000808B01004E240020287D010090B585B000AF021CFB1D1A70FB1D1B78022B04D90E23FB1801221A804DE02A4B1B78042B44D1294B1B78DBB21A1C0423A3
:401B000013403DD1FB1D1B78002B0DD1244B00221A82234B5B68C822D2001A80204B5B68C822D2005A8010E0FB1D1B78012B0CD11B4B96221A821A4B5B68C822D2001A803C
:401B4000174B5B688022D2015A80164BFA1D12781A700E23FC18124B181C0FF0EBFA031C23800E23FB181B88002B08D10B4B1B78DBB204221343DAB2084B1A7005E004E0DA
:401B80000E23FB180422FF321A800E23FB181B88181CBD4605B090BD4E24002057240020680100205624002080B500AF0FF050FB044B1B78DBB208221343DAB2014B1A7001
:401BC000BD4680BD5724002080B584B000AF78600A1CFB1C1A700023BB60BB68002B20D07B689A79BB681A700F23FB1800221A7012E00F23FB181B780133BA68D3180F2207
:401C0000BA18127879688A5C1A700F23FB181A780F23FB1801321A700F23FB181B78052BE7D9BD4604B080BD80B582B000AF78607B681B789AB27B6801331B789BB21B029E
:401C40009BB213439BB2181CBD4602B080BDC04690B585B000AF78600F23FB1800221A707B689B890B22934237D17B681A1D7B680F217C18101C00211A1C402311F0C6F9DE
:401C8000031C23700F23FB181B78002B1DD17B685B68181CFFF7C8FF031C1A1C022313409BB2002B08D0104B1B68822251007A68081C111C984708E00B4B1B680622FF32CE
:401CC000111C7A68081C111C9847084B1B78DBB201229343DAB2054B1A700F23FB181B78181CBD4605B090BD581900205724002090B585B000AF78600F23FC187B68181C38
:401D0000FFF7A6FF031C2370144B1B78DBB21A1C012313401FD10F23FB181B78002B16D00823FB1812229A707B689A890823FB181A800823FB180F22BA181278DA707B68FF
:401D40000822BA181868111C10F02EFB03E07B68186810F08FFBBD4605B090BD5724002080B582B000AF7860BD4602B080BDC04680B500AF034B00225A70024B00221A7024
:401D8000BD4680BD5424002080B582B000AF7860BD4602B080BDC04680B500AFBD4680BD80B584B000AF78600E23FB1800221A707B689B79002B1CD10F23FB1800221A7061
:401DC00012E00F23FB181B787A68D35C002B04D00E23FB1801221A700BE00F23FB181A780F23FB1801321A700F23FB181B78052BE7D90E23FB181B78181CBD4604B080BD8D
:401E000080B582B000AF021CBB1D1A80BD4602B080BDC04680B582B000AF7860BD4602B080BDC04680B584B000AF021C3960FB1D1A709D4B1B78DBB201221343DAB29A4BBB
:401E40001A70FB1D1B78712B00D911E19A00974BD3181B689F460C23FB1807221A700C23FB1800225A700C23FB18181C07F0C3FC0C23FB1807221A700C23FB1801225A7084
:401E80000C23FB18181C07F0B6FC894B1B68181CFFF786FF031E11D0854B1B68181C06F043F8834B1B68181C0021FFF78DFE804B1B68181C0121FFF787FE19E07D4B1A78AA
:401EC0007D4B1A707D4B1A787B4B5A707C4B1A78794B9A70784B181C06F026F8764B181C0021FFF771FE744B181C0121FFF76CFE03200EF0E1FF734B04221A70B9E03B68D9
:401F0000181CFFF741FFB4E03B681A786E4B1A70AFE0654B1B78DBB21A1C202313400ED16A4B1B78102B02D1684B0522DA70684B1A78664B101C191C0FF0C6F899E098E0A2
:401F40003B68181CFFF766FF93E03B68181CFFF761FF5C4B02221A708BE05A4B04221A7087E0584B1B78022B34D04F4B1B78DBB21A1C012313402DD04B4B1B78DBB21A1C5C
:401F8000042313400BD04F4B03221A70464B1B78DBB204229343DAB2434B1A701AE0424B1B78DBB21A1C082313400BD0454B04221A703D4B1B78DBB208229343DAB23A4B03
:401FC0001A7007E03F4B1B78032B03D13D4B04221A704EE04DE03B681B88181CFFF710FF47E03B4A3B68111C1A1C0223081C111C1A1C02F0EAFB364B1B78B4335A00354B35
:40200000D3180533344A111C1A1C0223081C111C1A1C02F0DAFBFFF7BFFE2AE0FFF7A8FE27E03B685B881C2B05D80E23FB183A6852881A8003E00E23FB181D221A803B6822
:402040000E22BA1811881A8800231204120C1B0C1B041343181C10F0B3F90AE03B68181CFFF746FE05E03B68181CFFF779FE00E0C0460D4B1B78DBB21A1C112313400FD032
:40208000094B1B78DBB201229343DAB2064B1A70124B1B68FA1D11783A68081C111C9847BD4604B080BDC0465724002048800100840100207CF1FF0F7C0100207DF1FF0F63
:4020C0007BF1FF0F4E240020502400204803002054240020808B01004C2400205819002080B500AFBD4680BD80B582B000AF786000F04AF87B68181C00F008F8032000F0B2
:4021000011F800F037F8BD4602B080BD80B582B000AF7860024B7A689A64BD4602B080BD0000002090B585B000AF021CFB1D1A701623FB600B23FC1800F0ABF8031C237054
:402140000A4B0A4A12680A491140FA1D1078FA689040021C0A431A600B23FB181B78181C00F09BF8BD4605B090BDC04600E400E0FFFF3FFF80B500AF024B04221A60BD4678
:4021800080BDC04600E100E080B500AF024B04221A60BD4680BDC04680E100E080B584B000AF021CFB1D1A700E4B1B68DAB20F23FB1840218A431A70FB1D1B789B01DBB2B2
:4021C00040221340D9B20F23FB180F22BA1812780A431A70034B0F22BA1812781A60BD4604B080BD0002044080B584B000AF021CFB1D1A700E4B1B68DAB20F23FB18402181
:402200008A431A70FB1D1B789B01DBB240221340D9B20F23FB180F22BA1812780A431A70034B0F22BA1812781A60BD4604B080BD0003044080B584B000AF021CFB1D1A7022
:402240000D4B1B68DAB20F23FB187F210A401A70FB1D1B78DB01D9B20F23FB180F22BA1812780A431A70044B0F22BA1812781A60BD4604B080BDC0460003044000000000EC
:402280000230800803D00138FDD1C046C046C0467047EFF3108072B6704780F31088704790B585B000AF78600F23FC18FFF7F1FF031C2370094B7A6807210A40D104074A01
:4022C0001268074802400A431A600F23FB181B78181CFFF7E2FFBD4605B090BD00010B40FFFFC7FF90B58BB000AF78602723FC18FFF7CFFF031C2370184B1A680C23FB1812
:402300001A60174B1A680C23FB185A607B68033B144AD35C1A1C0C23FB189A60124B1A680C23FB18DA601C23FB18104A1A600C23FA181C23FB185A600D4B1C22BA181A6073
:402340000C4B0D4A1A600A4B1B682723FB181B78181CFFF7A2FFBD460BB090BD08010B4000010B401082010030001040B6EA000008001040040010401700008080B584B098
:4023800000AF78600023FB60154B154A126801210A431A60134B144A1A60144B134A1268802109020A431A607B68002B12D01023FB600CE0012000F005F900F02FF8031E66
:4023C00002D00023FB6005E07B68013B7B607B68002BEFD1FB68181CBD4604B080BDC04660F02E4078002E400220000010002E4080B500AF064B064A126801218A431A60A3
:40240000044B044A126804490A401A60BD4680BD60F02E4010002E40FF7FFFFF80B582B000AF054B1B68012213407B607B68181CBD4602B080BDC0460C002E4090B585B03F
:4024400000AF7860114B1B6807221340022B16D00F23FC18FFF71DFF031C23700C4B7A68032111400A4A1268032082430A431A600F23FB181B78181CFFF70FFF02E0002020
:4024800000F096F8BD4605B090BDC04600010B4064F02E4080B584B000AF021C3960FB1D1A7080239B05FB60FB1D1B781F2B02D9002000F07DF8FB1D1B7810339B00FA6836
:4024C000D3181B68BB60FB1D1B7810339B00FA68D3183A681A60BB68181CBD4604B080BD90B587B000AF021CFB1D1A70BB1D0A1C1A70BB1D1B78032B02D9002000F058F8CF
:40250000FB1D1B781F2B02D9002000F051F8FB1D1B7803221340DB0006337B611323FC18FFF7B7FE031C2370FB1D1B789B08DBB29B00144A944663441B68FB607B6903227C
:402540009A40131CDA43FB681340FB60BB1D1A787B699A40131CFA681343FB60FB1D1B789B08DBB29B00074A94466344FA681A601323FB181B78181CFFF78FFEBD4607B049
:4025800090BDC04600E400E080B582B000AF021CFB1D1A70054BFA1D12781F210A40012191400A1C1A60BD4602B080BD00E100E080B582B000AF021CFB1D1A7001BEBD46D5
:4025C00002B080BD80B582B000AF021CBB1D1A80BB1D1B88044A12785343181CFFF750FEBD4602B080BDC0465403002090B583B000AFFC1DFFF74DFE031C2370074B074AA0
:40260000126804218A431A6030BFFB1D1B78181CFFF743FEBD4603B090BDC04610ED00E090B583B000AFFC1DFFF733FE031C2370114B114A1268520052081A600F4B104AA5
:40264000128892B21A600F4B0E4A126804210A431A600D4B1B683B600220FFF721FE30BF094B3A681A60FB1D1B78181CFFF715FEBD4603B090BDC04600000B400C000B404B
:4026800052F1FF0F10ED00E000010B4080B500AF0E4B0E4A126801218A431A600B4B0B4A126802218A431A60094B094A126830218A4310210A431A60054B054A1268072121
:4026C0008A4301210A431A60BD4680BD00F02E4000FF2E4080B500AF0E4B0E4A126802218A431A600C4B0C4A126807218A4302210A431A60084B084A126830218A4320211C
:402700000A431A60034B034A126801210A431A60BD4680BD00F02E4000FF2E4090B583B000AF00F0BDF8031E22D100F027F8031E1ED000F031F8031E14D1FC1DFFF7A9FDF7
:40274000031C237000F08AFA0B4B0B4A1268520052081A6000F0CEFAFB1D1B78181CFFF79CFD05E0044B044A1268520052081A60BD4603B090BDC04604010B4080B500AF63
:40278000044B1B68002B01DA012300E00023181CBD4680BD04010B4080B582B000AF054B1B689B0F9B077B607B68181CBD4602B080BDC0460C020B4090B585B000AF7860DD
:4027C000FFF7EAFF021E7B689A4219D00F23FC18FFF75FFD031C237000F040FA0A4B0A4A1268920091087A68920F92070A431A6000F080FA0F23FB181B78181CFFF74DFDD7
:40280000BD4605B090BDC0460C020B4080B500AFFFF73CFF044B044A1268802109060A431A60BD4680BDC04600F02E4080B584B000AF78600C4B1B6801221340FB607B686F
:40284000002B02D0012B03D005E0FFF71FFF06E0FFF740FF03E00020FFF7AAFEC046FB68181CBD4604B080BD00F02E4090B583B000AFFC1DFFF70DFD031C2370074B074A23
:402880001268C02109020A431A60FB1D1B78181CFFF703FDBD4603B090BDC04600010B4080B500AF054B1A68C0231B02134001D0012300E00023181CBD4680BD00010B4000
:4028C00090B583B000AFFC1DFFF7E3FC031C23700C4B0C4A12680C490A408021C9010A431A60084B074A126807490A40802109020A431A60FB1D1B78181CFFF7CEFCBD464C
:4029000003B090BD00010B40FF3FFFFF80B582B000AF78607B68022B02D90020FFF748FE054B1B687A68D2000132D34001221340181CBD4602B080BD10020B4080B584B0AB
:4029400000AF786039607B68022B02D90020FFF72FFE7B68181CFFF7D9FF031E15D10C4B1B687A68D200111C03228A40D2431340FB603B68032213407A68D2009340FA68AC
:402980001343FB60024BFA681A60BD4604B080BD0C020B4080B582B000AF7860054B1B687A68D200D34003221340181CBD4602B080BDC0460C020B4080B584B000AF78607B
:4029C00039607B68002B02D07B68012B01D1012300E00023002B02D10020FFF7E9FD7B68181CFFF793FF031E16D10D4B1B687A68D2000232111C01228A40D2431340FB6015
:402A00007B68DB0002331A1C3B689340FA681343FB60034BFA681A60BD4604B080BDC0460C020B4080B582B000AF7860144B144A11687A680A431A607B680122134005D06C
:402A4000C0460020FFF762FF031EFAD07A6880235B00134005D0C0460120FFF757FF031EFAD07A6880235B02134005D0C0460220FFF74CFF031EFAD0BD4602B080BDC04632
:402A800010020B4080B582B000AF7860FFF708FF031E26D1144B144A12687968C9430A401A607B680122134005D0C0460020FFF72DFF031EFAD17A6880235B00134005D064
:402AC000C0460120FFF722FF031EFAD17A6880235B02134005D0C0460220FFF717FF031EFAD1BD4602B080BD10020B4080B584B000AF786039607B68002B02D07B68012BBB
:402B000001D1012300E00023002B02D10020FFF74FFD174B1B689B0F9B0701D1C92300E05D23181CFFF74EFD124B1B68FB607B681B011A1C104B9340DA43FB681340FB60AC
:402B40000C4B7A681201111C3A688A40111CFA680A431A60064B1B689B0F9B0701D1432300E01F23181CFFF72DFDBD4604B080BD0C020B4008020B40FFFF000080B584B043
:402B800000AF78600023FB607B68012B09D002D3022B0BD00EE00C4B1B681B041B0CFB600CE0094B1B681B0CFB6007E0074B1B68FB6003E00020FFF7FBFCC046FB68181CF9
:402BC000BD4604B080BDC04600020B4004020B4080B500AF034B1B68034A1340181CBD4680BDC04610020B400404040090B585B000AF78600B23FC18FFF74BFB031C2370D4
:402C0000FFF74EFE031E04D00123FB60FFF758FE01E00023FB607B680D4A13407B600D4B0C4A12680C4911407A680A431A60094B1B68FB68012B01D1FFF718FE0B23FB18CF
:402C40001B78181CFFF729FBBD4605B090BDC0460404040010020B40FBFBFBFF80B582B000AF0020FFF752FE031E03D01E4B00221A6024E00120FFF749FE031E03D01A4BDF
:402C800001221A601BE00220FFF740FE031E03D0154B02221A6012E0144B01221A60124B00221A600020FFF775FE021C104B1A6000200021FFF742FE0120FFF7B3FE0A4B3D
:402CC0001B68181CFFF75AFF031C7B60C046064B1B68181CFFF752FF021E7B689A42F6D0BD4602B080BDC0467C0A0020640A0020680A002080B500AF0A4B1B68002B0ED057
:402D0000094B094A126801218A431A60074B1B680020191CFFF712FE024B00221A60BD4680BDC046640A002010020B40680A002080B500AF00F046F8BD4680BD80B500AFF7
:402D4000064B064A1268802109060A431A6000F019F800F01BF8BD4680BDC0460000244080B500AF064B1B78002B04D1FFF7E0FF034B01221A70FFF7E1FFBD4680BDC0465F
:402D8000800A002080B500AFBD4680BD80B500AF00F070F8BD4680BD80B582B000AF7860C046064B1B681F221340082BF9D0044B7A681A60BD4602B080BDC0460802244060
:402DC0004002244080B500AF184B194A1A60194B00221A60184B01221A60184B184A1A60184B07221A60184B00221A60174B01221A60174B124A1A60164B00221A60164B30
:402E000004221A60154B00221A60154B00221A60144B00221A60144B00221A60134B00221A60134B00221A60BD4680BD000024400F000002400024404800244000032440A4
:402E400007000080040324401003244044002440000224400402244050002440880E2440C80E2440480F2440080F2440C80F2440880F244080B500AF054B054A12680549D2
:402E80000A40902109040A431A60BD4680BDC04600010240FFFF0FFF80B500AF064B1B78002B04D100F00AF8034B01221A7000F023F8BD4680BDC046810A002080B500AF19
:402EC000094B0120191CFFF7E5FA01200121FFF707FB064B00221A70054B72221A70054B20221A70BD4680BD4D2F0000820A002082000F4081000F4090B583B000AFFC1D48
:402F0000FFF7C7F9031C23700E4A0E4B1B78DBB220210B43DBB213700B4A0B4B1B78DBB210210B43DBB213700120FFF72DFBFF2000F098F8FB1D1B78181CFFF7AEF9BD4602
:402F400003B090BD92000F4091000F4080B582B000AFFB1D00221A70384ABB1D12781A707B1DBA1D12781A70BB1D1B781E2213400DD0BB1D1B781A1C1E231340DAB2304BAE
:402F80001B78DBB21343DBB2DAB22D4B1A70BB1D1B782022134048D02A4A7B1D12781A70294B1B885A1C91B2274A1180191C274B7A1D12785A54244B1A8880239B009A42D5
:402FC00002D1214B00221A80214B1B78DBB2191C204B7A1D12785A54FB1D01221A70FB1D1B78002B21D01C4B1B78DBB2002B02D01A4B01221A70164B1B78DBB20133DAB278
:40300000134B1A70124B1B78DBB2072B02D9104B00221A700E4B1B78DAB2114B1B78DBB29A4202D10C4B01221A70BB1D1B782022134091D1BD4602B080BDC04661000F4066
:40304000820A002041000F404408002044060020840A002058240020850A0020860A0020830A002080B582B000AF7860C046064B1B68002BFBDB044B7A68120203490A4341
:403080001A60BD4602B080BD000001404200008080B582B000AF78600A1CBB1C1A80BB1C1A887B681A60BD4602B080BD80B582B000AF78600A1CBB1C1A80BB1C1A887B6873
:4030C0001A60BD4602B080BD80B582B000AF304B1B78DBB21B022F4A1278D2B213437B602D4B1B78DBB21B022C4A1278D2B213433B603B682A4A934207D17B68072B04D106
:40310000284B3B6004237B6009E03A68D4231B019A4204D17B68042B01D1224B3B60224B3A681A60214B7A681A60214B1B78DBB21B02204A1278D2B213437B607A6880231C
:403140009B019A4202D07B68002B01D11A4B7B601A4B7A681A601A4B1B78DBB21B02194A1278D2B213437B607B68174A934206D07B68164A934202D07B68052B01D1144BC3
:403180007B60144B7A681A60BD4602B080BDC046D9F0FF0FD8F0FF0FDFF0FF0FDEF0FF0F580B0000580D00006C002E4074002E40DBF0FF0FDAF0FF0F0220000078002E40DE
:4031C000DDF0FF0FDCF0FF0F0F0F000005050000050F000080002E4080B582B000AF021CBB1D1A80BB1D1B88181CFFF7EBF9BD4602B080BD80B500AF00F066F8BD4680BD5D
:4032000080B500AF00F06AF8BD4680BD80B500AF00F064F8044B181C00F024F8032000F02DF8BD4680BDC046F132000080B500AF024B181C00F004F8BD4680BDF132000004
:4032400080B582B000AF786000F048F87B68181C00F008F8032000F011F800F035F8BD4602B080BD80B582B000AF7860024B7A681A67BD4602B080BD0000002090B585B0D4
:4032800000AF021CFB1D1A700623FB600B23FC18FEF7FFFF031C23700A4B0A4A1268C0218A43111CFA1D1078FA689040021C0A431A600B23FB181B78181CFEF7EEFFBD4693
:4032C00005B090BD0CE400E080B500AF024B802252011A60BD4680BD00E100E080B500AF024B802252011A60BD4680BD80E100E080B500AF14F06AFABD4680BD0022430841
:403300008B4274D303098B425FD3030A8B4244D3030B8B4228D3030C8B420DD3FF22090212BA030C8B4202D31212090265D0030B8B4219D300E0090AC30B8B4201D3CB03E7
:40334000C01A5241830B8B4201D38B03C01A5241430B8B4201D34B03C01A5241030B8B4201D30B03C01A5241C30A8B4201D3CB02C01A5241830A8B4201D38B02C01A524112
:40338000430A8B4201D34B02C01A5241030A8B4201D30B02C01A5241CDD2C3098B4201D3CB01C01A524183098B4201D38B01C01A524143098B4201D34B01C01A5241030920
:4033C0008B4201D30B01C01A5241C3088B4201D3CB00C01A524183088B4201D38B00C01A524143088B4201D34B00C01A5241411A00D20146524110467047FFE701B5002077
:4034000000F0FCF802BDC0460029F7D003B5FFF775FF0EBC4243891A1847C04603460B437FD4002243088B4274D303098B425FD3030A8B4244D3030B8B4228D3030C8B4261
:403440000DD3FF22090212BA030C8B4202D31212090265D0030B8B4219D300E0090AC30B8B4201D3CB03C01A5241830B8B4201D38B03C01A5241430B8B4201D34B03C01ABA
:403480005241030B8B4201D30B03C01A5241C30A8B4201D3CB02C01A5241830A8B4201D38B02C01A5241430A8B4201D34B02C01A5241030A8B4201D30B02C01A5241CDD210
:4034C000C3098B4201D3CB01C01A524183098B4201D38B01C01A524143098B4201D34B01C01A524103098B4201D30B01C01A5241C3088B4201D3CB00C01A524183088B4238
:4035000001D38B00C01A524143088B4201D34B00C01A5241411A00D201465241104670475DE0CA0F00D04942031000D34042534000229C4603098B422DD3030A8B4212D3FF
:40354000FC22890112BA030A8B420CD3890192118B4208D3890192118B4204D389013AD0921100E08909C3098B4201D3CB01C01A524183098B4201D38B01C01A52414309B7
:403580008B4201D34B01C01A524103098B4201D30B01C01A5241C3088B4201D3CB00C01A524183088B4201D38B00C01A5241D9D243088B4201D34B00C01A5241411A00D247
:4035C0000146634652415B10104601D34042002B00D54942704763465B1000D3404201B5002000F00BF802BD0029F8D003B5FFF715FF0EBC4243891A1847C0467047C04637
:403600008446101C62468C46191C634600E0C0461FB500F029FC002801D40021C8421FBD10B500F06DFB4042013010BD10B500F01BFC002801DB002010BD012010BDC0461B
:4036400010B500F011FC002801DD002010BD012010BDC04610B500F097FB002801DC002010BD012010BDC04610B500F08DFB002801DA002010BD012010BDC04638B5002244
:403680000C4B041C0D1CFFF7EFFF002804D1201C291C00F0C9FF38BD064B0022201C291C00F048FC00F0C0FF80231B069C466044F1E7C0460000E041F0B55F4656464D46C2
:4036C0004446F0B40F0387B098464D003B0BCC0F061C924681469B466D0D01946BD0664B9D4235D080275B467F031F43F3009946624BFF00400F9C4607430023BB46002617
:4037000065440093424617035000D20F53463F0B400D904600D172E0574A904267D080235B031F435346554A5B0FFF001F43944653460021DB0060444246624092462D1AE5
:403740000E430F2E00D9A1E04D48B600805987465B461E4300D076E000239B469946023308260093CEE799464346BB4601930091009B022B6BD1019B9A46002153460122CF
:40378000002789461A403C4B00213F030C0D24053F0B27433B4C1B0527401F437F00D2077F0817434846391C07B03CBC90469946A246AB46F0BD03433ED05B46002B00D172
:4037C0009CE1584600F0A2FF2823311C1B1A021C5F46D940083A97400B1C96403B439B46B1460023284D00262D1A00938AE7524603213A43A0D10027002302219CE75246CD
:403800003A4315D0002F00D185E1381C00F07EFF021C28215046891A131CC8405146083B99409F400B1C074317480021801A83E70027002301217FE700239B4699460133B8
:40384000042600935EE703230C2600935AE7032B00D13CE2012B00D0BFE11A1C019B1A4000210023002789468EE700238027994600223F03004B87E7FF07000001FCFFFFBF
:4038800040820100FFFF0F800DFCFFFFBB4500D951E100D14CE14A46039200225C469046013D180E3F0238431B020193030C994603041B0C4946061C201C1F1C0093FFF74B
:4038C0001DFD021C7A4302904946201C171CFFF79BFD039B09041B0C19438F420CD9029B8919013B8E4200D952E18F4200D84FE1029B8919023B0293CC1B201C4946FFF7E8
:40390000FDFC009F834647434946201CFFF77CFD039A0B041404240C23439F420DD95A469B19013A9E4200D930E19F4200D82DE10222524294469B19E344029ADB1B170407
:403940005A463A439346019C170C220C101C04925A4611042204120C141C090C7C4305924A43414347436118100C09188C4203D980204002844667440C0C12040804120C63
:403980003C198118A34200D2E5E000D1DFE01F1B43465C1AA04592415242BF1AB74200D10EE1381C4946FFF7A9FC009B029043434946381C9846FFF727FD230C0F041F4346
:4039C000B8450CD9029BBF19013BBE4200D9FBE0B84500D8F8E0029BBF19023B02934346FF1A4946381CFFF789FC009B039043434946381C9846FFF707FD24040904240CB8
:403A0000214388450CD9039B8919013B8E4200D9DCE0884500D8D9E0039B8919023B03934346C91A029B039A1B04059C1A43100C13049146221C049F1B0C5A4344437B4367
:403A40007843E318170CDB199C4203D980246402A44660441C0C12041B04120C00199B18814200D296E000D1FCE04A4601231A4391469B4BEB18002B00DC99E04A465207EE
:403A80000AD00F2249460A40042A05D00431494592418946524293445A46D20106D55A46904B1A4080239346DB00EB188E4A934200DD62E64A465946D208490711435A46B3
:403AC00089465702514601225B053F0B5B0D0A405AE680205A460003024208D0074206D107433F0399463F0B4246804B4CE65F4607433F033F0B221C7C4B45E600F006FEF0
:403B0000031C2030272800DC5EE6083B9E400023B346994665E6504600F0F8FD021C2032272A00DC75E657460838874000237BE6994500D2AFE65A46594654084A46C80766
:403B40005208024303924A46D2079046A9E60027884500D31CE7019F5A46BC46E044B845BF417F42BF19FF18013ABE4206D2BC425FD800D19FE03F1B934609E7B742FAD1E7
:403B8000019B4345F3D9371B934601E79346D4E60293B1E64A468919013A8E4218D99146814200D061E7019A9A4200D05DE760E74F4F7F1B382F13DD012253461A404FE6B7
:403BC00001235B42994654E7029308E7039327E788423CD874D0914647E7019B9A4648E71F2F44DC434B4A469C465B466544FA40AB4013434A46AA40151C6A1E95415A4614
:403C0000FA402B43171C5A0709D00F221A40042A05D01A1D9A429B415B42FF18131C3A023ED55346012200211A40002701238946AAE502235B429C46019AE3449446E0447C
:403C400090459B415B429B19DF193F1BA0E6019F4A467C00BC42BF417F42BF19023AC91901949CE7002B95D1002201929BE75A46214B5B1BDA40202F27D0204B9C465B4659
:403C80006544AB4049460B43591E8B411343072200271A4007D00F2200271A40042AB8D17A077F023F0BDB0813439946012253461A40002368E54145BBD89346002767E6C0
:403CC000019C9C42C3D391466DE70023DAE780275B463F031F433F033F0B019A034B53E5FF030000FFFFFFFEFE070000FF07000002FCFFFF1E040000E2FBFFFF3E040000C8
:403D0000F0B55F464D4644465646F0B41F035C00DB0F99461B4B0E034D00C90F8446360B6D0D8B4690463F0B640D9D420CD0154B9C4210D00123A54214D0181C3CBC904648
:403D40009946A246AB46F0BD311C01230143F4D10C4B9C42EED13A430123002AEDD10123A542EAD1BE42E8D1C445E6D1CB4506D0002DE2D13043031C581E8341DDE700232F
:403D8000DBE7C046FF070000F0B5574645464E46E0B40F034E00C90F8A4632491D035C0084463F0B760D90462D0B640DDB0F8E420FD08C4239D0002E10D13843414241412C
:403DC0008946002C27D12A4325D1002000290ED108E0391C01432ED1B44226D0002C0BD09A450DD05346594201231943081C1CBC90469946A246F0BD2A43F3D09A45F1D14B
:403E0000A642EFDC1ADA504641424841012341421943081CEBE74A46002AE1D058425841012241421143081CE1E7291C114302D1002EC2D0D4E702204042D8E7AF42D1D8D8
:403E400009D00020AF42D2D2504641424841012340421843CBE7C445C4D80020C445F3D3C5E7C046FF070000F0B55F464D46444656468046F0B4061C0803000B84462C4830
:403E80004C001F035D00C90F640D8B4691463F0B6D0DDB0F844212D0854225D0002C14D161460E4370424641002D35D0002E21D058425841012143420B43181C0EE06146B0
:403EC000022031430AD1A5420ED0002D12D13A4310D15B46594201231943081C3CBC90469946A246AB46F0BD391C02201143F5D1002CD5D09B45ECD1AC42EADC05DBBC4577
:403F0000E7D80FD00020BC45E8D2584641424841414201200843E1E73A43C7D10020002EDCD1D6E7C845D4D80020C845EDD3D5E7FF070000F0B54D4644465F465646F0B4CB
:403F40000E1C111C3203520A470F1743C5001A035800DB0F9946520A4B0F83B01A43CB000193CF4B7400F60F640DB046400D984200D1E8E00123494659400B1C9E4200D123
:403F8000B1E0261A002E00DC1CE1002842D1131C01990B4300D0E6E06B0700D18EE00F232B40042B00D189E02A1DAA42AD418023012641466D427F191B043B400E40151CB8
:403FC000002B00D183E0B64B01349C4200D116E13A1CB44BED081A405007640552020543120B640D002112030B0D1B056405120B1A436308AC4CF60714401C4364006408C4
:404000003443281C211C03B03CBC90469946A246AB46F0BDA24B9C42BED080231B041A43382E00DD03E11F2E00DD3FE12020831B9946131C49468B409C46019B6046F3401C
:4040400003430198F2408840011C481E81410B43EB1A9D4280411D1CBA1A4042171A3B0200D4A8E07A02560A002E00D1CAE0301C00F04CFB031C083B1F2B00DDCBE0282250
:40408000291C121AD1409E400A1C9D4032439C4200DDC8E01C1B671C1F2F00DDEDE01F23291C1C1B131CA540A340F9406C1EA541FA4019430D43171C00246DE7802301265A
:4040C00042461B043B401640002B00D07BE7744BED0878070543FA089C423BD012036405120B640D7EE7231A9A46002B00DCA5E0002844D06A48844200D14DE7802000040E
:4041000002435346382B00DC1CE1019B1A43511E8A41D1B200224919A94280410D1CD219404217183B0246D55D4B01349C4200D169E101205B4A6B083A4028401843D5073A
:404140000543570828E7131C01990B4300D111E74B4613E72B1C134351D080231B031A431203120B3EE7013E002E00D080E0691A8D429B41BA1A5B42D71A0D1C6FE7101C13
:40418000019B184300D107E701235B429C46E2445346002B00D002E1019BD2195919A9429B415B42D7180D1CBCE76346034300D128E1071C65466B0700D0F0E60126434692
:4041C0001E4084E7002E00D081E0601C4005400D012800DC07E10199681A84466545B641B81A7642861B300200D4A1E08C464D1BAC458941D21B4942561A984634E700226B
:404200000025EFE6281C00F081FA2030031C083B1F2B00DC33E7021C283A95402A1C00259C4200DC36E71F4FE41A1740B4E6019B1A43511E8A41D3B2002209E7002B00D02A
:4042400001E1601C43055B0D012B00DCB0E0144B984200D11EE1019BD2195919A9429B415B42D2184908D5070D435708041C93E60B4B9C4200D0D3E68EE6211C131C1F39DE
:40428000CB40191C202F00D18EE03F231C1BA24015436A1E954100270D4300248BE7C046FF070000FFFF7FFFFFFF0F80331C101C203BD840202E79D040239B1B9A40131C36
:4042C000019A1343591E8B4100220343C0E6002C53D0C74CA04200D1B0E0802471428946240427434946382900DDCDE01F2900DD59E120243E1C611A8E408A46B04649460A
:404300002E1CCE405146B4468D4064464646494626436C1EA541CF4035430199D71B8C464D1BAC4592415242BF1A041C984696E663466546334300D096E6002600270024AA
:404340000025C4E61F2B61DC2020C31A9B46131C59468B4051469946019BCB409C464B46604603439C465B46019999406346481E814119435346DA40CDE63C1C2C435DD057
:40438000F1438946002955D10199D21B8C464D1BAC4589414942571A041C98465FE69448844200D0ADE6F7E5002271E7002387E73B1C2B43002C00D0DAE0002B00D113E199
:4043C000131C01990B4300D1E6E54919A9429B41D2195B42D7183B0200D421E1854B0D1C1F40041CD8E5381C2843002C40D1002800D083E0101C0199084303D0171C0D1C8B
:404400009846C9E500260027002560E65046131C2038C340181C5346202B00D1C1E0402351465B1A9A40019911434A1E91410022014370E66E4CA04200D053E7171C019DEA
:40444000041C9846A8E5002C28D13C1C2C4300D18AE0DB439A46002B00D082E0019BD2199C4665449D42894149425718041C59E600285BD1101C0199084300D1A4E0171C2E
:404480000D1C98465A4C87E53D436F1EBD410027EDB242E7041C0027002518E6544CA04262D0534680245B429A46240427435346382B00DD8EE01F2B00DD9DE02024E31A53
:4044C0009B463B1C59468B40514699462B1CCB409C464B46644623439C465B469D4063466C1EA541CF401D43019BBF189C4665449D4292415242BF18041C13E6101C0199ED
:40450000084300D148E5681A844685428041BE1A4042301A060200D447E68C464D1BAC458941D21B4942571A984635E5101C0199084334D080247807ED08FF082403284315
:40454000274208D0D608264205D1C90852070A43101C371C9846FF00420F1743C500244C1AE5234CA042A2D1171C019D041C13E5002B35D0131C01990B4310D08024780735
:40458000ED08FF08240328432742E4D0D3082342E1D1C90852070A43101C1F1CDBE7144CFAE400223FE74C463E1C203CE6404946341C202932D04026761AB7403D436F1EA6
:4045C000BD4100272543A8E680270026FF03084C00257CE53D436F1EBD410027EDB283E7171C019D024CD7E4171C019DD4E4C046FF070000FFFF7FFF54463B1C203CE34061
:404600001C1C5346202B0DD0402351465B1A9F403D436F1EBD410027254365E70027CDE70D1CC8E50027F3E70B0330B5134C1A0B4B00051C5B0DC90F0020A34210DD10482E
:4046400083420EDC80200F4C40030243E41A1F2C0ADD0D48C31ADA40131C48424340581830BD0A4BC818FBE7281CE040084CA44663449A40131C0343EFE7C046FE03000067
:404680001D0400003304000013040000FFFFFF7FEDFBFFFF38B5041E16D0C50F00D04442201C00F033F8174B1B1A0A2821DC021C211C153291400A1C0B21081AC4405B05A2
:4046C0002403240B5B0D03E000250023002400220021101C24030A0D1205240B14430A4A1B0514401C436400ED0764082C43211C38BD0B3884405B052403240B5B0D002290
:40470000E6E7C0461E040000FFFF0F801C2101231B04984201D3000C10391B0A984201D3000A08391B09984201D30009043902A2105C40187047C04604030202010101010A
:40474000000000000000000008B5002100F018FF08BD0000014B18687047C046E00500200E4B70B500251E1C0D4CE41AA410A54204D0AB00F35898470135F8E713F0A0FED3
:40478000084B00251E1C084CE41AA410A54204D0AB00F35898470135F8E770BDCC840100CC840100CC840100D484010030B50024944208D0035D651C0C5DA34201D0181B39
:4047C00002E02C1CF4E7002030BD002310B5934203D0CC5CC4540133F9E710BD031C8218934202D019700133FAE770470FB40B4B13B51C68002C05D0A369002B02D1201C95
:4048000001F0F0F805AB201CA168049A019302F0CFF916BC08BC04B01847C046E005002070B5051C0E1C002804D08369002B01D101F0D8F8AC68A3891B0702D52369002B04
:4048400019D1281C211C00F061FF002813D00120404245E03178002B1BDAA269934211DA221C281C00F0FAFE013042424241D0B20028ECD10136A3683278013BA360002AB8
:40488000E8D10CE023681970236819780A2903D1E6E723681970236801332360EAE7002B17DAA269934208DB0A2322681370236819780A2911D1281C01E0281C0A21221C0C
:4048C00000F0CCFE013042424241D0B2002806D0BDE70A23226813702368013323600A2070BD000008B5034B011C1868FFF798FF08BDC046E005002030B503680C780133C2
:40490000002C0AD01A78151C413D192D00D820320131A242F2D0002001E00360012030BD70B5161C0D1C01F043FF002E0BD06B226B005B0DD31A002B05DD034D1C050022CD
:40494000631902F0F5FF70BD0000F03F0023F0B5A3B01E93002600270B1C0390069119921D931D9B1A780D2A05D8092A14D2002A00D1C3E112E02B2A06D02D2A02D0202A0E
:404980000CD109E0012200E000220D925A1C1D925B78002B04D1B1E10133E1E700230D9300221D9D0A922B78302B5DD16B78582B01D0782B4CD11EAB00930D9B0398019356
:4049C0001DA9C24A1FAB01F0E7F807240490044001D100F0A7FD062C05D1002301351D950D9300F09FFD1E9A002A07D020A8352101F0D2FF03981E9901F03AFC1F9B062CA5
:404A00001CD8201C02F062FC040A0714170A040000273E1C12E0209E219F0FE0AC4A21999B18AC4A1B050A401343209E1F1C05E0A94F002602E00126A84F7642049B1B073A
:404A400001D400F06FFD80231B061F4300F06AFD1D9B5A1C1D925B78302BF9D0002B01D100F060FD01230A931D9B0C9300230593079304931D9C23781A1C303A0893D3B252
:404A8000092B12D804990A23082904DC07994B43D318079303E005994B43D3180593049B0134013304931D94E4E7039801F042FB0568039801F03EFB006802F06DFB291C9B
:404AC000021C201C02F06FFB051E05D00020089B049C011C08905AE0039801F02BFB006802F05AFB1D9B049A18181D900378101E41D1302B05D11D9B01305A1C1D925B7855
:404B0000F7E71A1C313A082A3DD8011C0020041C1D9A0C92303B421C002B26D08918221C001982420FD00132541E082C04DC0A24079D65430795F4E7102AF2DC0A24059DF6
:404B400065430595EDE7541C082A06DC0A2207984243D3180793002207E00022102C04DC0A20059D6843C31805931D9B581C1D905B78101C02E0281C291C049C1A1C303A12
:404B8000092AC7D901E00024211C0122089220221D1C95430022452D57D1231C0A9D03432B43934200D1A9E01D9B069301331D93069B5B782B2B06D02D2B01D0099208E0CA
:404BC0000123099300E00992069B02331D93069B9B781A1C303A092A34D8302B04D11D9B5A1C1D925B78F8E731256D42AC469C4465460022082D28D8303B0B931D9B0E9367
:404C000030256D42AC461D9B5A1C1D925B789C446546092D06D80A220B9D6A43D318303B0B93EDE70E9D521B151E2D4A9446082D03DC0B9A624500DD6246099D002D04D0BE
:404C4000524202E0069A1D920022002C61D10A9A104301D000F066FC089A002A4ED14E2B1CD002DC492B05D048E0692B02D06E2B14D043E01DA81B49FFF73EFE00283DD0A0
:404C80001D9B1DA8013B18491D93FFF735FE002802D11D9B01331D930F4F2CE01DA81349FFF72AFE002829D01D9B1B78282B21D11DA80F4920AA01F0A5F905281AD1219BC6
:404CC000054A209E1A43171C00F02CFCD082010033040000FFFFEFFF0000F07FFFFFFF7F1F4E00009C8201009F820100A582010088820100924F002600F014FC069B1D9365
:404D000000230D93199B002B01D000F00EFC00F017FC531A0993049B002B00D10494251E102D00DD1025079803F09CF8061C0F1C092D15DD2B1C834A093BDB00D3181A68FA
:404D40005B6802F0F5FD061C05980F1C03F08AF8021C0B1C301C391C02F0C2FA061C0F1C0F2C37DC099B002B00D1DBE324DD162B07DC7449DA008A18106851683B1C321C6C
:404D800015E02523099A1B1B9A4223DC0F226D4D141BE300EB1818685968321C3B1C02F0C7FD099B1C1BE4002D192A686B6802F0BFFD061C0F1CB5E3099B16330ADB099BF3
:404DC000301CDA005F4B391C9A1A53681268FEF773FCEEE7099B651B5D19002D59DD0F232B400AD0574ADB00D31818685968321C3B1C02F09DFD061C0F1C0F239D4300D1EF
:404E0000B0E02633FF339D420EDD0023049305930B93089322230026039A4B4F13600B9BB34200D06AE37DE30023301C391C2D110593012D0EDDEB0707D5059BDA00434B4C
:404E4000D3181A685B6802F073FD059B6D1001330593EEE7061C3E4BCF18059BDA003B4B9B1818685968321C3B1C02F061FD364B0F1C0B403749061C8B42C6D836498B4217
:404E800003D90126354F76426CE0D4239B04FF1868E0002D66D00F236D422B400AD0294ADB00D318301C1A685B68391CFEF704FC061C0F1C2D1155D01F2D05DD002304933D
:404EC00005930B93089318E100230693EB0601D56A230693391C301C214E002D08DDEB0703D53268736802F023FD6D100836F4E7069B061C0F1C002B19D06B224B005B0DF4
:404F0000081CD31A002B12DD1F2B0CDD0026342B02DDDC27BF040AE00122203B52429A401040071C03E0012252429A401640301C391C00220023FEF773FB0028BED113E0E3
:404F40000000F8FF508301000000F07F188401000000B0FC0000A07C0000907CFFFFEF7FA882010000230693079B039800930C99049A231C01F0D1F90B90002800D144E767
:404F8000099B099A5B42D217134013930023049305930B9B0398596801F032F90890002800D137E70B9B0B991B690C319A1C92000C300793FFF709FC1FAB009320AB01932C
:404FC0000398321C3B1C0E960F9701F067FC1E90002800D11EE70398012101F028FA0590002800D116E70023099A0A93934200DA0A921F9B002B00DA89E0139A0A9CD518B6
:40500000069A20999B1A36225B18521AC84901208B4200DB85E0C91A521A1F297BDC8840002318901293AB180793069BA418E418079BAB4200DD2B1CA34200DD231C002B31
:4050400004DD079AE41AD21A0792ED1A139B002B6BD1079B002B00DD80E00A9B002B00D086E0002C00DD8DE0002D00DD94E003981E99089A01F031FB0490002800D1C9E6BE
:405080000022C3680599C2600C9301F00BFB002800DB91E00C9B002B00D01AE2002E00D017E23B0300D014E2D622A24BD2043B40934200D80DE2049B5B690793002B75D001
:4050C00004990398012201F09BFA0599049001F0E9FA002800DCFCE1069A964B002A00D19AE01A1CD6213A40C9048A4200DD93E0DC239B049A4200DDEEE12223039A002634
:4051000013600B9B0027002B00D0F7E10AE20A9A139DD41A74E78849CB1A011C9940129101E00023129318907DE71A1C0398059901F014FA0590031E00D16BE60398191CB9
:405140001E9A01F07DF90C90002800D162E603981E9901F08DF80C9B1E937AE703981E99079A01F04DFA1E90002800D075E751E6039808990A9A01F0F1F90890002800D003
:405180006FE747E603980899221C01F039FA0890002800D068E73DE6039805992A1C01F02FFA0590002800D061E733E6049B1B690793012B84DC8CE1002864D10C9A3B034E
:4051C000002A24D05D4A391C1B0B93422DD1069A0138341C031C002A0AD0D425554AED043A40AA4204D86C33120D9A1A031C93409C421AD1524B994202D1631C00D109E6CE
:405200004C4B0026194080235B03CF1861E1002B0BD1002E09D15FE701264A4A3B409B18464A76421A43171C53E1129B002B03D03B4200D14DE103E0189B334200D148E1B8
:405240000C9B301C391C069A002B0AD0FFF768FB021C0B1C0E980F9902F042F8061C0F1C37E1FFF75DFB021C0B1C0E980F99FEF761FE00220023061C0F1CFEF7D1F9002816
:4052800000D03AE725E10498059901F05BFB80230022DB05041C0D1CFEF7D2F9002836D00C9B002B02D00024274D0BE0002E02D13B0305D10BE0012E02D1002F00D11CE76E
:4052C0000024224D002307931F4B0A9348E0201C291C00221C4BFEF7A9F9002808D1201C291C00221A4B02F023FB07900A9103E00C9B0793164B0A93802212069446079BEB
:405300001A930A9B63441B931A9C1B9D28E0104B201C291C002202F00BFB0C9B07900A91002B17D180231B06CB181490159315E003FCFFFF0000F07FE3FBFFFFFFFF0F0031
:40534000FFFFEF7F0000F0FF0000F03F0000F0BF0000E03F079A0A9B14921593149C159D7A4B3B401293129A794B9A422BD10E9A0F9B10921193774B301CFF18391C01F0AF
:4053800017FA021C0B1C201C291C02F0D1FA021C0B1C301C391C01F0A3FF6C4B6E4A061C0B4093420BD96D4B119A9A4203D1109B013300D12EE50126684F764278E0D42390
:4053C0009B04CF1840E0069B002B2BD0D423129ADB049A4226D807980A99614A614BFEF72FF9002819D007980A99FEF747F9002800D1013002F036FD0C9B07900A91002B53
:4054000005D180231B06CB181690179303E0079A0A9B16921793169C179DD623129ADB04EB189D1A0E980F9901F0C2F9021C0B1C201C291C02F07CFA021C0B1C0E980F99C5
:4054400001F04EFF061C0F1C069B0E97002B2FD13E4B129A3B409A422AD10A990798FFF7E3F8FFF717F90B1C021C0A990798FEF761FD0C9B041C0D1C002B04D1002E02D1C5
:405480000E9B1B030ED0201C291C374A374BFEF7CDF8002832D1201C291C354A354BFEF7D9F803E0304A344BFEF7C0F8002825D103981E9900F0DCFE0398089900F0D8FED3
:4054C0000398059900F0D4FE0398049900F0D0FE5FE5069B002B11D0284B301C119300231093391C109A119B02F022FA061C0F1E04D1002802D12223039A136003981E9922
:4055000000F0B6FE0398089900F0B2FE0398059900F0AEFE03980B9900F0AAFE0398049900F0A6FE199B002B02D0199B1D9A1A600D9B002B04D080231B06321CFB1801E030
:40554000321C3B1C101C191C23B0F0BD0000F07F0000E07F0000B0FCFFFF9F7CFFFFEF7F0000C0FFFFFFDF419535A094FFFFDF3F35E5AF350000E03FFFFFCF3F00005039FD
:4055800008B5031C0A1C03490868191CFFF7DEF908BDC046E0050020F8B5174B071C1D680E1CAC6D002C1FD1502000F01FFEA8658460AB6D046044601C61DC60AB6D9C61E9
:4055C0005C61AB6DDC629C62AB6D5C631C63AB6DDC639C63AB6D5C641C64AB6DDC649C64AB6D1C77AB6D5C62381C311CAA6D012300F004F8F8BDC046E0050020F0B5041E6E
:405600000CD11468201E09D126E03778002F0CD00136B842F9D1002B04D02C1C651C20780E1CF2E71560237015E0002808D1106012E00778B74207D00130002FF9D11D1CC9
:405640006B1C2E78081CF4E7002E02D00021297000E0331C1360201CF0BD000070B5051C0E1C141C002804D08369002B01D100F0B9F9234B9C4201D16C6808E0214B9C426E
:4056800001D1AC6803E0204B9C4200D1EC68A369A360A3891B070AD52369002B07D023682269F6B2981A636998420FDB08E0281C211C00F02BF80028F1D0012040421DE0E4
:4056C000281C211C00F020F90028F6D1A3680130013BA36023685A1C22601E706369984205D0A389301CDB0708D50A2E06D1281C211C00F009F90028DFD1301C70BDC0461A
:40570000E48201000483010024830100354B70B51D68061C0C1C002D05D0AB69002B02D1281C00F05FF9304B9C4201D16C6808E02E4B9C4201D1AC6803E02D4B9C4200D190
:40574000EC68A3899AB2110723D4D10607D409220120326037321343A381404240E0530713D5616B002908D0231C4433994202D0301C01F057F9002363632422A389934309
:40578000A38100236360236923600822A3891343A3812369002B0BD1A023A2899B00134080229200934203D0301C211C00F0C6FC0123A289134005D00023A36063695B4274
:4057C000A36103E0910700D46369A36000202369834205D1130603D540231A43A281013870BDC046E0050020E48201000483010024830100F7B58A89051C0C1C13075ED410
:405800004B68002B02DC0B6C002B1ADDE76A002F17D000232E682B6080235B011A4001D0626D15E0281C216A0123B847021C431C0ED12B68002B0BD01D2B01D0162B02D166
:405840002E6000205EE04021A3890B43A38159E0A3895B0706D56368D21A636B002B01D0236CD21A0023281C216AE76AB847A389421C06D12A68002A03D01D2A01D0162A15
:4058800019D10022626022692260DB0405D5431C02D12B68002B00D16065616B2E600029CFD0231C4433994202D0281C01F0BAF80020606326E040221343A38122E00F6923
:4058C000002FBED00B680F60DB1B01930023920700D14B69A360019B002BB2DD281C216A3A1C019BA66AB047002806DC40220120A38940421343A38104E0019B3F181B1A5C
:405900000193E8E7FEBD000038B50B69051C0C1C002B01D100201CE0002804D08369002B01D100F05FF80B4B9C4201D16C6808E0094B9C4201D1AC6803E0084B9C4200D19B
:40594000EC680C22A35E002BE4D0281C211CFFF751FF38BDE4820100048301002483010008B5024900F0AEF808BDC04609590000002310B5041C036043608360818143660B
:40598000C281036143618361191C08225C30FEF725FF054B24626362044BA362044BE362044B236310BDC0460171000029710000617100008D71000070B568254B1E5D43F2
:4059C0000E1C291C743101F073F8041E08D000212A1C016046600C30A0606832FEF7FEFE201C70BD836913B5002B28D18364C3640365134B134A1B6882620193984201D1EF
:405A000001238361041C00F01FF86060201C00F01BF8A060201C00F017F80421E06000226068FFF7A5FFA06809210122FFF7A0FFE06812210222FFF79BFF0123A36113BD03
:405A40008482010061590000F8B51D4B061C1D68AB69002B02D1281CFFF7C4FF4835AC686B68013B05D40C22A75E002F10D06834F7E72B68002B06D1301C0421FFF79CFFCE
:405A80002860002801D02D68E9E70C23336016E00123201C5B42E3810233A38167662760A760676027616761A7615C30391C0822FEF794FE201C6763A763A764E764F8BD67
:405AC00084820100F7B5041C071C002601914834002C16D06368A5680093009B013B00930DD4AB89012B08D90E22AB5E013304D0381C291C019B984706436835EDE72468D8
:405B0000E6E7301CFEBDF0B5061C056914364A11341CAA4225DA1F23AD00920019407519B218331C002916D0131C04CB2027CA40B4467F1A6446AB4208D21C68BC402243B4
:405B4000644604C404CBA446CA40F3E72260002A07D0043405E01C1CAA4202D202CA02C3F9E7A31B9B10036100D14361F0BD031C303B092B01D820380BE0031C613B052B59
:405B800001D8473805E0021C413A0023052A01D82738C3B2181C7047F0B58DB0099102920A93059000F0C6FA0368181C079301F0F3FA079B04901B18013B1B780B93099BA2
:405BC00019688A1C01920198531A0078023B01323028F7D00893FFF7CAFF061E20D101980799049A01F0DFFA00283CD1019B049A9C182078FFF7BBFF002837D00194019B03
:405C00001878302803D1019B01330193F7E7FFF7AEFF4342434103930123261C089302E000231E1C0393019C2078FFF7A0FF002801D00134F8E7201C0799049A01F0B3FA5F
:405C400000280BD1002E0BD1049BE618341C2078FFF78DFF002801D00134F8E7371E08D0361BB70005E0019C371C00E0071C012303932378502B01D0702B28D163782B2B8F
:405C800007D02D2B03D00023651C069304E0012300E000230693A51C2878FFF768FF431EDBB2182B13D810380135061C2878FFF75EFF431EDBB2182B03D80A235E43301872
:405CC000F1E7069B002B00D07642BF1900E0251C099B1D60039B002B06D00020089B834200D07BE1063079E1019B0399E31A013B072B02DD01315B10FAE7059800F080FA74
:405D0000031C0026051C1433039308930696019B9C422AD9631E09930B9A1B78934209D0069B202B14D1089B1E6000260433089306960DE0099B049A9C1A019B01349C424F
:405D4000EED3201C079901F02EFA0028DFD0E7E7099B1878FFF70BFF0F231840069B099C9840043306430693D1E7089C039B40C4E41AA4102C61301C00F00FFB029B64014E
:405D80001B68261A01939E4225DDF61A281C311C00F018FE0024A04217D01F230134201C721E13409840031C511103988900095819420AD0A24201DC022406E0B11E281C8D
:405DC00000F000FE0028F7D00324281C311CFFF79AFEBF190EE0019B00249E420ADA9E1B291C0598321C00F00BFC031C051C1433BF1B0393029B9B6804939F4208DD0598C5
:405E0000291C00F035FA0023129AA3201360E5E0029B5E68B7425ADA019BF61B9E4232DB029BDB68022B1ED0032B20D0012B21D1019B9E421ED1012B0DDC029B62205B6871
:405E40000193019A0A9B1A600123039A2B611360129B1D60C2E00199281C013900F0B2FD0028EAD106E0139B002BE6D002E0139B002BE2D10598291C00F0FAF90023129A37
:405E800050201360AAE0771E002C07D1002F06DD281C391C00F096FD041C00E001241F237A111F401E3BBB401F1C039B9200D3583B4201D002231C43019B311C9B1B281CBE
:405EC0000193FFF720FE029B02265F6800E00126002C7ED0029BDB68022B0BD0032B0DD0012B74D1A20772D5039A126814431C4207D16CE00123139A9B1A1393139B002BA4
:405F000065D02C69A30003932B1C039A143399181A68501C02D001321A6021E0002204C39942F5D8AB689C4212DB6B680598591C00F066F9291C2B6904909A1C0C3192007F
:405F40000C30FEF742FC291C059800F091F9049D2B695A1C2A61012204339B00EB185A602B1C1433022E11D1029A01991268013A91422AD14A111F210198920001400120ED
:405F8000041C8C40D35823421FD00CE02A69A2420BDD281C0121FFF7B6FD029B01379B689F4200DD2BE701260FE01F24019A01262240141E09D0039A9B18043B186800F0ED
:405FC000ECF920210C1BA042E3DB202300E010231E43301C129B1D600A9B1F600DB0F0BD082370B520259A1A9200AD1A436806681C1CAC40D340344304604360043088428B
:40600000F4D370BDF0B589B000920A68009953119B00CB1802931F231A400790059202D0029B04330293029B00251E1F371C341C079B35601B68069503930195039B013380
:4060400003931B780493002B3BD00498FFF78FFD002822D1049B202B17D8069B019A9342ECDABC4206D2072D04DC201C391C2A1CFFF7B6FF009B08259C42DFD90025019BB6
:40608000271F3D6006933C1CD8E7049B292B4CD1039B079A0133136013E0019B013501330193082D06DD009B9C42C7D900230125043C236023681A010F231840104320608A
:4060C000BCE7019B002B30D0BC4206D2072D04DC201C391C2A1CFFF783FF009B9C420AD9043302CC1A1F1160A642F9D2002204C39E42FBD20EE0059B002B0BD02022059935
:40610000029B521A01214942D1400A1C043B19680A401A603368002B09D1009B9E4202D10123336003E0043EF4E7042000E0052009B0F0BD00487047E4050020F0B58B89F9
:4061400091B09B0706D50B1C47330B600B6101234B6145E00C1C0E23C95E061C002904DA8023A5891D4010D10CE001AA01F056F80028F5DBF023029D1B021D40194BED18D9
:406180006B425D418027FF0001E000254027301C391C00F08DFC00280CD1A3899A051FD402221343A381231C4733236023610123636115E080220C4BB362A3892060134359
:4061C000A38120616761002D0AD00E23E15E301C01F036F8002803D00122A3891343A38111B0F0BD00E0FFFF6159000008B5034B011C186800F05CFC08BDC046E0050020C6
:4062000070B5466A041C0D1C002E07D11020FFF7EDFF6062466086600660C660666AF368002B09D0626AAB00D268D318186800280ED002681A6017E0201C0421212200F08E
:40624000E2FB636AF060DB68002BEBD100200EE001210E1CAE40721D9200201C00F0D3FB0028F3D04560866000230361C36070BD70B5456A061C0C1C002D07D11020FFF701
:40628000B5FF7062456085600560C560002C07D0726A6368D2689B00D3181A6822601C6070BDF7B51E1C14239C46071C0C1C00200D698C44634619881B6851431B0C53435F
:4062C00089190E0CF31889B21E0C1B045B186146013008C18C46A842ECDB002E1BD0A3689D4212DB6368381C591CFFF789FF211C236901909A1C0C3192000C30FEF765FA4B
:40630000211C381CFFF7B4FF019C2B1D9B00E31801355E602561201CFEBDF7B5061C181C0C1C083009210193151CFDF777F801230021984202DD5B000131FAE7301CFFF7D5
:406340005FFF089B011C436101230361092D12DD231C09331F1C009364193B78301C303B0A22FFF79EFF0137011CA742F5D1009B5C19083C01E009250A342F1C019B9F4252
:4063800009DA631BDB5D301C303B0A22FFF789FF0137011CF2E7081CFEBD0022031C010C914201D103041032190E01D108321B02190F01D104321B01990F01D102329B00B5
:4063C000101C002B03DB20205B0000D5501C70470722036810B5011C1A400CD001240020234223D10222134203D0E340201C0B601CE09B0818E098B2002801D110221B0C41
:40640000D8B2002801D108321B0A180701D104321B09980701D102329B08D80704D45B082020002B02D00132101C0B6010BD10B50C1C0121FFF7E4FE01234461036110BD17
:40644000F0B50B69141C126989B00D1C934201DA251C0C1C2F692669AA68BB1969680093934200DD0131FFF7CBFE011C009B1431844698000B1C0818834202D2002204C3A1
:40648000FAE71435BF00EB191434B6000493A31902950693069B9C4256D223880393002B22D00E1C0027029B0193019B039D04CB059601933388079393B26B43079D120CA3
:4064C000EB183568DB192F0C039D6A43BA181F0CD219170C9BB21204134308C6019A049B9A42E2D3059B5F6023681B0C019321D000220D1C0B68029F03923E88019A9BB2EB
:4065000056432A680595120CB218039E9219160433432B6008CF019E1B0C7343AE88120C9B199B181A0C0392049A0435BA42E4D8059A536004340431ACE704380368002BCB
:4065400005D1009B013B0093009B002BF5DC63466046009A1A6109B0F0BD00000323F7B51340051C0E1C141C002B07D0224A013B9B009A580023FFF794FE061CA31001938F
:4065800037D06C6A002C07D11020FFF72FFE6862446084600460C4606F6ABC68002C10D1281C1649FFF743FF0023B860041C036007E0019B5B1001931BD0206800280FD02E
:4065C000041C019BDB07F4D5311C221C281CFFF737FF071C311C281CFFF74AFE3E1CE8E7281C211C221CFFF72BFF002320600360E6E7301CFEBDC046408401007102000027
:40660000F0B50C1C171C2369551185B0EB180193013300934968A3680290009A9A4202DD01315B00F9E70298FFF7EAFD021C061C00231432AB4204DA00209900505001334D
:40664000F8E7EB43DB171D40231CAD0055192269143392009A1894461F22174014D00132D21B039200221968281CB9400A4304C504CB0399CA409C45F5D84260002A07D087
:40668000019B0233009303E004CB04C59C45FBD8009B0298013B3361211CFFF7E9FD301C05B0F0BD03690A6910B59B1A041C181E12D1930014341431E218C918043A043973
:4066C00013680868834204D083429B410120184302E0A242F2D8002010BDF0B5071C85B0081C0C1C111C151CFFF7DCFF061E07D1381C311CFFF784FD01234661036155E08C
:4067000000230193984204DA231C2C1C1D1C01230193381C6168FFF773FD019B26692F1CC3601434B300E318021C02932B69002514379B00FB180393143208CC69469C46BA
:4067400008CF0432009363468B808B885D19009B9BB2EB1A65460193009B2D0C190C019B691A1D14131F9C466B4649199B880D1409040B4361460B60039B9F42DDD3029925
:40678000131C8C420BD208CC99B249190D141B0CEB181D1489B21B040B4308C2EFE7043B1A68002A01D1013EF9E7066105B0F0BD0F4B10B519400F4BC918002902DD002238
:4067C0000B1C11E04942091500220023132904DC802000030841031C06E00120322902DC3324611A8840021C101C191C10BDC0460000F07F0000C0FCF7B5061C0369143691
:406800009B00F3181D1F2C680F1C201C0193FFF7C4FD20231B1A3B601F490A2813DC0B23271C1B1ADF4039439C460B1C0021B54202D901990839096865461530E94084402E
:4068400021430A1C24E00027B54202D9019D083D2F680B235B429C4684446346002B14D02B23181A63469C4021433C1CC44021430B1C0024B54201D9043D2C68C440614625
:40688000201C8F403843021C02E021430B1C3A1C101C191C03B0F0BD0000F03FF7B51D1C0121089F141CFFF7ABFC2B036D00061C1B0B6D0D02D08022520313430193002CCA
:4068C00018D068460094FFF783FD009C002809D02023019A191A131C8B40C24023437361019200E07461019CB461631E9C410134346107E001A8FFF76BFD0124019B3461AE
:4069000073612030002D06D00B4BED1835232D183D60181A0BE0094BC018094B3860E3189B00F3185869FFF738FD6401201A099B1860301CFEBDC046CDFBFFFFCEFBFFFF84
:40694000FFFFFF3FF0B587B00E1C04A9071CFFF753FF041C0D1C301C05A900940195FFF74BFF049B059A3F699A1A336902900391FB1A5B01D318002B03DD1B055B19019325
:4069800002E01B05CB1A039300980199029A039BFCF792FE07B0F0BD131C013910B549111269013189001433920041189A18934202D210CB10C0FAE7884202D2002308C0A7
:4069C000FAE710BD30B5041C026914344B1193420CDC0CDA1F22114009D09A00155901202A1CCA408A40AA420CD100E0131C9B00E318A34205D9043B1A68002AF9D001207E
:406A000000E0002030BD4A4338B5111C141C00F04FF8051E03D00021221CFDF7DFFE281C38BD000030B500293ED004390B68002B00DAC9181D4A1368141C002B02D14B608F
:406A4000116031E099420DD208680A189A4203D11368C3180B6053684B60216024E08A4203D8131C5A68002AF9D11D685C198C420BD10968691858181960904214D11068B2
:406A80005268091819605A600EE08C4202D90C23036009E008680C18944203D114685268001908604A60596030BDC04630190020032370B5CC1C9C430834051C0C2C01D288
:406AC0000C2405E0002C03DA0C2300202B6042E08C42F9D3204A1368101C191C002913D00A68121B0DD40B2A02D90A608B181FE08B4202D15A6802601BE04A685A600B1CA2
:406B000017E00B1C4968E9E7144E3368002B03D1281C00F0E3FA3060281C211C00F0DEFA031C421CD0D00322C61C964386420AD11C60181C07210B301A1D8843821A0AD0A5
:406B40005142995007E0311A281C00F0C7FA431CBAD0331CECE770BD301900202C190020936810B5013B9360002B05DA9469A34208DBCBB20A2B05D01368581C106019703F
:406B8000C8B201E0FEF76AFD10BDF8B5061C0F1C141CD518AC4208D02178301C3A1CFFF7DFFF0134431CF5D100E00020F8BD0000F0B59FB0061C0F1C02920593002804D0ED
:406BC0008369002B01D1FEF70DFF794B9F4201D1776808E0774B9F4201D1B76803E0764B9F4200D1F768BB891B070AD53B69002B07D0002306AD6B6120336B761033AB76FF
:406C00003DE0301C391CFEF781FD0028F1D001204042CAE0059A111D12680591002A7EDB0992013423782E2B00D189E021786348032200F02BFB002808D0604B0134C01A56
:406C400040238340181C2B68184328602178631C5B4806220293297600F018FB002800D191E0584B002B00D084E00722059B07339343083305936B69039A9B186B61029C84
:406C80002378002B04D1029BE31A049311D003E0252BF8D00134F3E7049B301C391C029AFFF773FF431C7BD06A69049B944663446B612378002B73D00122002352426A60C3
:406CC00002A95432521801342B60EB60AB601370AB6521783C48052200F0D8FA002809D0394B0134C01A01238340181C2B6818432860EEE72B68DA0604D55322202102A8A4
:406D0000121811701A0704D553222B2102A81218117022782A2A00D17CE7099B05E05242EA60022213432B607BE72278303A092A04D80A214B4301349B18F6E7099371E723
:406D400063782A2B09D1059B02341A1D1B680592002B0DDA01235B420AE0002301342278303A092A04D80A214B4301349B18F6E707935BE705AB0093301C291C3A1C134BD8
:406D800000E000BF07E005AB0093301C291C3A1C0E4B00F08BF80390039B013300D06AE7BB895B0600D532E70B981FB0F0BDC046E4820100048301002483010052840100AB
:406DC00056840100000000004C8401008B6B0000F7B5171C01930A698B6800900C1C934200DA131C221C3B6043321278002A01D001333B6023689B0602D53B6802333B606A
:406E0000062523681D401ED0231C43331B785A1E9341226892061CD53020E1184031C870211C5A1C45310978A21840320233D1700FE0221C0123009801991932089EB04701
:406E4000431C0ED00135E3683A689B1A9D42F0DBDAE7221C009801994332089DA847431C02D10120404220E006232068E1683A6803400025042B03D18D1AEB43DB171D4019
:406E8000A3682269934201DD9B1AED180027AF420ADA221C0123009801991A32089EB047431CDED00137F2E70020FEBDF0B58BB006920A1C43320793059004920A7E0C1CD5
:406EC000109B6E2A00D1A8E011D8632A22D009D8002A00D1B2E0582A00D0C2E045310A707C4A4FE0642A1DD0692A1BD0B9E0732A00D1A7E009D86F2A29D0702A00D0B0E053
:406F0000202209680A43226037E0752A1FD0782A33D0A6E00E1C1A684236111D196013683370A1E021681A68080606D4490604D5111D19600023D55E02E0111D1960156877
:406F4000002D3BDA2D23049A6D42137036E021681A68080606D4490604D51568111D1960ADB202E0111D196015685A4B227E03930A276F2A1DD108271BE0221C78214532EA
:406F80001170554A19680392081D226818600D68100602D4500600D5ADB2D30702D520231A4322601027002D03D1202322689A432260231C002243331A7002E00A27454B4E
:406FC00003936368A360002B03DB0422216891432160002D02D1049E002B0ED0049E281C391CFCF711FA039B013E5B5C281C3370391CFCF783F9051EF1D1082F09D123687C
:40700000DB0706D563682269934202DC3023013E3370049B9B1B23612BE009681A68080607D4490605D5111D19601368A28A1A8004E0111D1960136862691A600023049E74
:40704000236116E01A68111D196016680021301C626800F01BF9002801D0801B6060636803E0261C42363270012323610023049A1370079B05980093211C069B09AAFFF711
:40708000A7FE431C02D10120404221E0236905980699321C079DA847431CF4D023689B0705D4099BE068984212DA181C10E00025E368099A9B1A9D42F3DA221C012305983A
:4070C00006991932079EB047431CDCD00135EFE70BB0F0BD5D8401006E84010038B50023064C051C081C2360FAF718F9431C03D12368002B00D02B6038BDC04660240020A7
:4071000038B50C1C0E25495F00F0CCF8002803DB636D1B18636503E0A289024B1340A38138BDC046FFEFFFFFF8B51E1C8B89051C0C1C171CDB0505D50E23C95E0022022351
:4071400000F090F8A289054B281C1340A3813A1C0E23E15E331C00F03BF8F8BDFFEFFFFF38B50C1C0E25495F00F07CF8A389421C03D1054A1340A38104E0802252011343E1
:40718000A381606538BDC046FFEFFFFF08B50E23C95E00F031F808BD0023C25C0133002AFBD1581E7047002330B59A420DD0013AC45CCD5CAC4202D1934202D1251C631B07
:4071C00003E00133002CF3D1F8E7181C30BD000038B5051C0020074C2060081C111C1A1CFAF77CF8431C03D12368002B00D02B6038BDC0466024002038B50023064C051C35
:40720000081C236000F060FE431C03D12368002B00D02B6038BDC0466024002038B50023064C051C081C111C236000F055FE431C03D12368002B00D02B6038BD60240020FF
